{
  "contractName": "Decentramall",
  "abi": [
    {
      "inputs": [
        {
          "internalType": "uint256",
          "name": "_currentLimit",
          "type": "uint256"
        },
        {
          "internalType": "uint256",
          "name": "_basePrice",
          "type": "uint256"
        },
        {
          "internalType": "address",
          "name": "_dai",
          "type": "address"
        }
      ],
      "stateMutability": "nonpayable",
      "type": "constructor"
    },
    {
      "anonymous": false,
      "inputs": [
        {
          "indexed": true,
          "internalType": "address",
          "name": "owner",
          "type": "address"
        },
        {
          "indexed": true,
          "internalType": "address",
          "name": "approved",
          "type": "address"
        },
        {
          "indexed": true,
          "internalType": "uint256",
          "name": "tokenId",
          "type": "uint256"
        }
      ],
      "name": "Approval",
      "type": "event"
    },
    {
      "anonymous": false,
      "inputs": [
        {
          "indexed": true,
          "internalType": "address",
          "name": "owner",
          "type": "address"
        },
        {
          "indexed": true,
          "internalType": "address",
          "name": "operator",
          "type": "address"
        },
        {
          "indexed": false,
          "internalType": "bool",
          "name": "approved",
          "type": "bool"
        }
      ],
      "name": "ApprovalForAll",
      "type": "event"
    },
    {
      "anonymous": false,
      "inputs": [
        {
          "indexed": true,
          "internalType": "address",
          "name": "buyer",
          "type": "address"
        },
        {
          "indexed": false,
          "internalType": "uint256",
          "name": "price",
          "type": "uint256"
        },
        {
          "indexed": false,
          "internalType": "uint256",
          "name": "tokenId",
          "type": "uint256"
        }
      ],
      "name": "BuyToken",
      "type": "event"
    },
    {
      "anonymous": false,
      "inputs": [
        {
          "indexed": true,
          "internalType": "address",
          "name": "owner",
          "type": "address"
        },
        {
          "indexed": false,
          "internalType": "uint256",
          "name": "amount",
          "type": "uint256"
        },
        {
          "indexed": false,
          "internalType": "uint256",
          "name": "toClaim",
          "type": "uint256"
        }
      ],
      "name": "ClaimRent",
      "type": "event"
    },
    {
      "anonymous": false,
      "inputs": [
        {
          "indexed": true,
          "internalType": "address",
          "name": "from",
          "type": "address"
        },
        {
          "indexed": false,
          "internalType": "uint256",
          "name": "tokenId",
          "type": "uint256"
        }
      ],
      "name": "Deposit",
      "type": "event"
    },
    {
      "anonymous": false,
      "inputs": [
        {
          "indexed": true,
          "internalType": "address",
          "name": "sender",
          "type": "address"
        },
        {
          "indexed": false,
          "internalType": "uint256",
          "name": "value",
          "type": "uint256"
        }
      ],
      "name": "Received",
      "type": "event"
    },
    {
      "anonymous": false,
      "inputs": [
        {
          "indexed": true,
          "internalType": "address",
          "name": "renter",
          "type": "address"
        },
        {
          "indexed": false,
          "internalType": "uint256",
          "name": "tokenId",
          "type": "uint256"
        },
        {
          "indexed": false,
          "internalType": "uint256",
          "name": "rentPrice",
          "type": "uint256"
        }
      ],
      "name": "Rented",
      "type": "event"
    },
    {
      "anonymous": false,
      "inputs": [
        {
          "indexed": true,
          "internalType": "address",
          "name": "seller",
          "type": "address"
        },
        {
          "indexed": false,
          "internalType": "uint256",
          "name": "price",
          "type": "uint256"
        },
        {
          "indexed": false,
          "internalType": "uint256",
          "name": "tokenId",
          "type": "uint256"
        }
      ],
      "name": "SellToken",
      "type": "event"
    },
    {
      "anonymous": false,
      "inputs": [
        {
          "indexed": true,
          "internalType": "address",
          "name": "from",
          "type": "address"
        },
        {
          "indexed": true,
          "internalType": "address",
          "name": "to",
          "type": "address"
        },
        {
          "indexed": true,
          "internalType": "uint256",
          "name": "tokenId",
          "type": "uint256"
        }
      ],
      "name": "Transfer",
      "type": "event"
    },
    {
      "inputs": [
        {
          "internalType": "address",
          "name": "to",
          "type": "address"
        },
        {
          "internalType": "uint256",
          "name": "tokenId",
          "type": "uint256"
        }
      ],
      "name": "approve",
      "outputs": [],
      "stateMutability": "nonpayable",
      "type": "function"
    },
    {
      "inputs": [
        {
          "internalType": "address",
          "name": "owner",
          "type": "address"
        }
      ],
      "name": "balanceOf",
      "outputs": [
        {
          "internalType": "uint256",
          "name": "",
          "type": "uint256"
        }
      ],
      "stateMutability": "view",
      "type": "function"
    },
    {
      "inputs": [],
      "name": "basePrice",
      "outputs": [
        {
          "internalType": "uint256",
          "name": "",
          "type": "uint256"
        }
      ],
      "stateMutability": "view",
      "type": "function"
    },
    {
      "inputs": [],
      "name": "baseURI",
      "outputs": [
        {
          "internalType": "string",
          "name": "",
          "type": "string"
        }
      ],
      "stateMutability": "view",
      "type": "function"
    },
    {
      "inputs": [],
      "name": "currentLimit",
      "outputs": [
        {
          "internalType": "uint256",
          "name": "",
          "type": "uint256"
        }
      ],
      "stateMutability": "view",
      "type": "function"
    },
    {
      "inputs": [],
      "name": "dai",
      "outputs": [
        {
          "internalType": "address",
          "name": "",
          "type": "address"
        }
      ],
      "stateMutability": "view",
      "type": "function"
    },
    {
      "inputs": [
        {
          "internalType": "uint256",
          "name": "tokenId",
          "type": "uint256"
        }
      ],
      "name": "getApproved",
      "outputs": [
        {
          "internalType": "address",
          "name": "",
          "type": "address"
        }
      ],
      "stateMutability": "view",
      "type": "function"
    },
    {
      "inputs": [
        {
          "internalType": "address",
          "name": "owner",
          "type": "address"
        },
        {
          "internalType": "address",
          "name": "operator",
          "type": "address"
        }
      ],
      "name": "isApprovedForAll",
      "outputs": [
        {
          "internalType": "bool",
          "name": "",
          "type": "bool"
        }
      ],
      "stateMutability": "view",
      "type": "function"
    },
    {
      "inputs": [],
      "name": "multiplier",
      "outputs": [
        {
          "internalType": "uint256",
          "name": "",
          "type": "uint256"
        }
      ],
      "stateMutability": "view",
      "type": "function"
    },
    {
      "inputs": [],
      "name": "name",
      "outputs": [
        {
          "internalType": "string",
          "name": "",
          "type": "string"
        }
      ],
      "stateMutability": "view",
      "type": "function"
    },
    {
      "inputs": [
        {
          "internalType": "uint256",
          "name": "tokenId",
          "type": "uint256"
        }
      ],
      "name": "ownerOf",
      "outputs": [
        {
          "internalType": "address",
          "name": "",
          "type": "address"
        }
      ],
      "stateMutability": "view",
      "type": "function"
    },
    {
      "inputs": [
        {
          "internalType": "address",
          "name": "from",
          "type": "address"
        },
        {
          "internalType": "address",
          "name": "to",
          "type": "address"
        },
        {
          "internalType": "uint256",
          "name": "tokenId",
          "type": "uint256"
        }
      ],
      "name": "safeTransferFrom",
      "outputs": [],
      "stateMutability": "nonpayable",
      "type": "function"
    },
    {
      "inputs": [
        {
          "internalType": "address",
          "name": "from",
          "type": "address"
        },
        {
          "internalType": "address",
          "name": "to",
          "type": "address"
        },
        {
          "internalType": "uint256",
          "name": "tokenId",
          "type": "uint256"
        },
        {
          "internalType": "bytes",
          "name": "_data",
          "type": "bytes"
        }
      ],
      "name": "safeTransferFrom",
      "outputs": [],
      "stateMutability": "nonpayable",
      "type": "function"
    },
    {
      "inputs": [
        {
          "internalType": "address",
          "name": "operator",
          "type": "address"
        },
        {
          "internalType": "bool",
          "name": "approved",
          "type": "bool"
        }
      ],
      "name": "setApprovalForAll",
      "outputs": [],
      "stateMutability": "nonpayable",
      "type": "function"
    },
    {
      "inputs": [
        {
          "internalType": "uint256",
          "name": "",
          "type": "uint256"
        }
      ],
      "name": "spaceInfo",
      "outputs": [
        {
          "internalType": "address",
          "name": "rentedTo",
          "type": "address"
        },
        {
          "internalType": "uint256",
          "name": "rentalEarned",
          "type": "uint256"
        },
        {
          "internalType": "uint256",
          "name": "expiryBlock",
          "type": "uint256"
        }
      ],
      "stateMutability": "view",
      "type": "function"
    },
    {
      "inputs": [
        {
          "internalType": "bytes4",
          "name": "interfaceId",
          "type": "bytes4"
        }
      ],
      "name": "supportsInterface",
      "outputs": [
        {
          "internalType": "bool",
          "name": "",
          "type": "bool"
        }
      ],
      "stateMutability": "view",
      "type": "function"
    },
    {
      "inputs": [],
      "name": "symbol",
      "outputs": [
        {
          "internalType": "string",
          "name": "",
          "type": "string"
        }
      ],
      "stateMutability": "view",
      "type": "function"
    },
    {
      "inputs": [
        {
          "internalType": "uint256",
          "name": "index",
          "type": "uint256"
        }
      ],
      "name": "tokenByIndex",
      "outputs": [
        {
          "internalType": "uint256",
          "name": "",
          "type": "uint256"
        }
      ],
      "stateMutability": "view",
      "type": "function"
    },
    {
      "inputs": [
        {
          "internalType": "address",
          "name": "owner",
          "type": "address"
        },
        {
          "internalType": "uint256",
          "name": "index",
          "type": "uint256"
        }
      ],
      "name": "tokenOfOwnerByIndex",
      "outputs": [
        {
          "internalType": "uint256",
          "name": "",
          "type": "uint256"
        }
      ],
      "stateMutability": "view",
      "type": "function"
    },
    {
      "inputs": [
        {
          "internalType": "uint256",
          "name": "tokenId",
          "type": "uint256"
        }
      ],
      "name": "tokenURI",
      "outputs": [
        {
          "internalType": "string",
          "name": "",
          "type": "string"
        }
      ],
      "stateMutability": "view",
      "type": "function"
    },
    {
      "inputs": [],
      "name": "totalSupply",
      "outputs": [
        {
          "internalType": "uint256",
          "name": "",
          "type": "uint256"
        }
      ],
      "stateMutability": "view",
      "type": "function"
    },
    {
      "inputs": [
        {
          "internalType": "address",
          "name": "from",
          "type": "address"
        },
        {
          "internalType": "address",
          "name": "to",
          "type": "address"
        },
        {
          "internalType": "uint256",
          "name": "tokenId",
          "type": "uint256"
        }
      ],
      "name": "transferFrom",
      "outputs": [],
      "stateMutability": "nonpayable",
      "type": "function"
    },
    {
      "inputs": [
        {
          "internalType": "uint256",
          "name": "x",
          "type": "uint256"
        }
      ],
      "name": "price",
      "outputs": [
        {
          "internalType": "uint256",
          "name": "",
          "type": "uint256"
        }
      ],
      "stateMutability": "view",
      "type": "function"
    },
    {
      "inputs": [],
      "name": "buy",
      "outputs": [],
      "stateMutability": "nonpayable",
      "type": "function"
    },
    {
      "inputs": [
        {
          "internalType": "uint256",
          "name": "tokenId",
          "type": "uint256"
        }
      ],
      "name": "sell",
      "outputs": [],
      "stateMutability": "nonpayable",
      "type": "function"
    },
    {
      "inputs": [
        {
          "internalType": "uint256",
          "name": "tokenId",
          "type": "uint256"
        },
        {
          "internalType": "string",
          "name": "_tokenURI",
          "type": "string"
        }
      ],
      "name": "rent",
      "outputs": [],
      "stateMutability": "nonpayable",
      "type": "function"
    },
    {
      "inputs": [
        {
          "internalType": "uint256",
          "name": "tokenId",
          "type": "uint256"
        }
      ],
      "name": "claim",
      "outputs": [],
      "stateMutability": "nonpayable",
      "type": "function"
    }
  ],
  "bytecode": "0x6080604052662386f26fc10000600c553480156200001c57600080fd5b5060405162003df138038062003df1833981810160405260608110156200004257600080fd5b810190808051906020019092919080519060200190929190805190602001909291905050506040518060400160405280600581526020017f53504143450000000000000000000000000000000000000000000000000000008152506040518060400160405280600581526020017f5350414345000000000000000000000000000000000000000000000000000000815250620000eb6301ffc9a760e01b620001bf60201b60201c565b816006908051906020019062000103929190620002c8565b5080600790805190602001906200011c929190620002c8565b50620001356380ac58cd60e01b620001bf60201b60201c565b6200014d635b5e139f60e01b620001bf60201b60201c565b6200016563780e9d6360e01b620001bf60201b60201c565b505082600a8190555081600b8190555080600d60006101000a81548173ffffffffffffffffffffffffffffffffffffffff021916908373ffffffffffffffffffffffffffffffffffffffff16021790555050505062000377565b63ffffffff60e01b817bffffffffffffffffffffffffffffffffffffffffffffffffffffffff191614156200025c576040517f08c379a000000000000000000000000000000000000000000000000000000000815260040180806020018281038252601c8152602001807f4552433136353a20696e76616c696420696e746572666163652069640000000081525060200191505060405180910390fd5b6001600080837bffffffffffffffffffffffffffffffffffffffffffffffffffffffff19167bffffffffffffffffffffffffffffffffffffffffffffffffffffffff1916815260200190815260200160002060006101000a81548160ff02191690831515021790555050565b828054600181600116156101000203166002900490600052602060002090601f016020900481019282601f106200030b57805160ff19168380011785556200033c565b828001600101855582156200033c579182015b828111156200033b5782518255916020019190600101906200031e565b5b5090506200034b91906200034f565b5090565b6200037491905b808211156200037057600081600090555060010162000356565b5090565b90565b613a6a80620003876000396000f3fe608060405234801561001057600080fd5b50600436106101a95760003560e01c80636c0360eb116100f9578063c7876ea411610097578063e985e9c511610071578063e985e9c514610a61578063eabd0ce114610add578063eb4215e814610afb578063f4b9fa7514610b77576101a9565b8063c7876ea41461096e578063c87b56dd1461098c578063e4849b3214610a33576101a9565b8063a22cb465116100d3578063a22cb4651461074a578063a6f2ae3a1461079a578063b88d4fde146107a4578063bbce1b9b146108a9576101a9565b80636c0360eb146105ec57806370a082311461066f57806395d89b41146106c7576101a9565b806323b872dd11610166578063379607f511610140578063379607f5146104a057806342842e0e146104ce5780634f6ccce71461053c5780636352211e1461057e576101a9565b806323b872dd1461038e57806326a49e37146103fc5780632f745c591461043e576101a9565b806301ffc9a7146101ae57806306fdde0314610213578063081812fc14610296578063095ea7b31461030457806318160ddd146103525780631b3ed72214610370575b600080fd5b6101f9600480360360208110156101c457600080fd5b8101908080357bffffffffffffffffffffffffffffffffffffffffffffffffffffffff19169060200190929190505050610bc1565b604051808215151515815260200191505060405180910390f35b61021b610c28565b6040518080602001828103825283818151815260200191508051906020019080838360005b8381101561025b578082015181840152602081019050610240565b50505050905090810190601f1680156102885780820380516001836020036101000a031916815260200191505b509250505060405180910390f35b6102c2600480360360208110156102ac57600080fd5b8101908080359060200190929190505050610cca565b604051808273ffffffffffffffffffffffffffffffffffffffff1673ffffffffffffffffffffffffffffffffffffffff16815260200191505060405180910390f35b6103506004803603604081101561031a57600080fd5b81019080803573ffffffffffffffffffffffffffffffffffffffff16906020019092919080359060200190929190505050610d65565b005b61035a610ea9565b6040518082815260200191505060405180910390f35b610378610eba565b6040518082815260200191505060405180910390f35b6103fa600480360360608110156103a457600080fd5b81019080803573ffffffffffffffffffffffffffffffffffffffff169060200190929190803573ffffffffffffffffffffffffffffffffffffffff16906020019092919080359060200190929190505050610ec0565b005b6104286004803603602081101561041257600080fd5b8101908080359060200190929190505050610f36565b6040518082815260200191505060405180910390f35b61048a6004803603604081101561045457600080fd5b81019080803573ffffffffffffffffffffffffffffffffffffffff16906020019092919080359060200190929190505050610f47565b6040518082815260200191505060405180910390f35b6104cc600480360360208110156104b657600080fd5b8101908080359060200190929190505050610fa2565b005b61053a600480360360608110156104e457600080fd5b81019080803573ffffffffffffffffffffffffffffffffffffffff169060200190929190803573ffffffffffffffffffffffffffffffffffffffff169060200190929190803590602001909291905050506111c9565b005b6105686004803603602081101561055257600080fd5b81019080803590602001909291905050506111e9565b6040518082815260200191505060405180910390f35b6105aa6004803603602081101561059457600080fd5b810190808035906020019092919050505061120c565b604051808273ffffffffffffffffffffffffffffffffffffffff1673ffffffffffffffffffffffffffffffffffffffff16815260200191505060405180910390f35b6105f4611243565b6040518080602001828103825283818151815260200191508051906020019080838360005b83811015610634578082015181840152602081019050610619565b50505050905090810190601f1680156106615780820380516001836020036101000a031916815260200191505b509250505060405180910390f35b6106b16004803603602081101561068557600080fd5b81019080803573ffffffffffffffffffffffffffffffffffffffff1690602001909291905050506112e5565b6040518082815260200191505060405180910390f35b6106cf6113ba565b6040518080602001828103825283818151815260200191508051906020019080838360005b8381101561070f5780820151818401526020810190506106f4565b50505050905090810190601f16801561073c5780820380516001836020036101000a031916815260200191505b509250505060405180910390f35b6107986004803603604081101561076057600080fd5b81019080803573ffffffffffffffffffffffffffffffffffffffff16906020019092919080351515906020019092919050505061145c565b005b6107a2611614565b005b6108a7600480360360808110156107ba57600080fd5b81019080803573ffffffffffffffffffffffffffffffffffffffff169060200190929190803573ffffffffffffffffffffffffffffffffffffffff169060200190929190803590602001909291908035906020019064010000000081111561082157600080fd5b82018360208201111561083357600080fd5b8035906020019184600183028401116401000000008311171561085557600080fd5b91908080601f016020809104026020016040519081016040528093929190818152602001838380828437600081840152601f19601f820116905080830192505050505050509192919290505050611887565b005b61096c600480360360408110156108bf57600080fd5b8101908080359060200190929190803590602001906401000000008111156108e657600080fd5b8201836020820111156108f857600080fd5b8035906020019184600183028401116401000000008311171561091a57600080fd5b91908080601f016020809104026020016040519081016040528093929190818152602001838380828437600081840152601f19601f8201169050808301925050505050505091929192905050506118ff565b005b610976611bc3565b6040518082815260200191505060405180910390f35b6109b8600480360360208110156109a257600080fd5b8101908080359060200190929190505050611bc9565b6040518080602001828103825283818151815260200191508051906020019080838360005b838110156109f85780820151818401526020810190506109dd565b50505050905090810190601f168015610a255780820380516001836020036101000a031916815260200191505b509250505060405180910390f35b610a5f60048036036020811015610a4957600080fd5b8101908080359060200190929190505050611eb2565b005b610ac360048036036040811015610a7757600080fd5b81019080803573ffffffffffffffffffffffffffffffffffffffff169060200190929190803573ffffffffffffffffffffffffffffffffffffffff1690602001909291905050506120bb565b604051808215151515815260200191505060405180910390f35b610ae561214f565b6040518082815260200191505060405180910390f35b610b2760048036036020811015610b1157600080fd5b8101908080359060200190929190505050612155565b604051808473ffffffffffffffffffffffffffffffffffffffff1673ffffffffffffffffffffffffffffffffffffffff168152602001838152602001828152602001935050505060405180910390f35b610b7f61219f565b604051808273ffffffffffffffffffffffffffffffffffffffff1673ffffffffffffffffffffffffffffffffffffffff16815260200191505060405180910390f35b6000806000837bffffffffffffffffffffffffffffffffffffffffffffffffffffffff19167bffffffffffffffffffffffffffffffffffffffffffffffffffffffff1916815260200190815260200160002060009054906101000a900460ff169050919050565b606060068054600181600116156101000203166002900480601f016020809104026020016040519081016040528092919081815260200182805460018160011615610100020316600290048015610cc05780601f10610c9557610100808354040283529160200191610cc0565b820191906000526020600020905b815481529060010190602001808311610ca357829003601f168201915b5050505050905090565b6000610cd5826121c5565b610d2a576040517f08c379a000000000000000000000000000000000000000000000000000000000815260040180806020018281038252602c815260200180613933602c913960400191505060405180910390fd5b6004600083815260200190815260200160002060009054906101000a900473ffffffffffffffffffffffffffffffffffffffff169050919050565b6000610d708261120c565b90508073ffffffffffffffffffffffffffffffffffffffff168373ffffffffffffffffffffffffffffffffffffffff161415610df7576040517f08c379a00000000000000000000000000000000000000000000000000000000081526004018080602001828103825260218152602001806139e36021913960400191505060405180910390fd5b8073ffffffffffffffffffffffffffffffffffffffff16610e166121e2565b73ffffffffffffffffffffffffffffffffffffffff161480610e455750610e4481610e3f6121e2565b6120bb565b5b610e9a576040517f08c379a00000000000000000000000000000000000000000000000000000000081526004018080602001828103825260388152602001806138866038913960400191505060405180910390fd5b610ea483836121ea565b505050565b6000610eb560026122a3565b905090565b600c5481565b610ed1610ecb6121e2565b826122b8565b610f26576040517f08c379a0000000000000000000000000000000000000000000000000000000008152600401808060200182810382526031815260200180613a046031913960400191505060405180910390fd5b610f318383836123ac565b505050565b6000600b546002830a019050919050565b6000610f9a82600160008673ffffffffffffffffffffffffffffffffffffffff1673ffffffffffffffffffffffffffffffffffffffff1681526020019081526020016000206125ef90919063ffffffff16565b905092915050565b3373ffffffffffffffffffffffffffffffffffffffff16610fc28261120c565b73ffffffffffffffffffffffffffffffffffffffff161461104b576040517f08c379a000000000000000000000000000000000000000000000000000000000815260040180806020018281038252600a8152602001807f4e6f74206f776e6572210000000000000000000000000000000000000000000081525060200191505060405180910390fd5b6000600e6000838152602001908152602001600020600101549050600d60009054906101000a900473ffffffffffffffffffffffffffffffffffffffff1673ffffffffffffffffffffffffffffffffffffffff1663a9059cbb33836040518363ffffffff1660e01b8152600401808373ffffffffffffffffffffffffffffffffffffffff1673ffffffffffffffffffffffffffffffffffffffff16815260200182815260200192505050602060405180830381600087803b15801561110f57600080fd5b505af1158015611123573d6000803e3d6000fd5b505050506040513d602081101561113957600080fd5b81019080805190602001909291905050505080600e6000848152602001908152602001600020600101600082825403925050819055503373ffffffffffffffffffffffffffffffffffffffff167f08ba35046f6c13819c043440dd76d8d96f0213d505f9d6954483b5121ceef97b8383604051808381526020018281526020019250505060405180910390a25050565b6111e483838360405180602001604052806000815250611887565b505050565b60008061120083600261260990919063ffffffff16565b50905080915050919050565b600061123c826040518060600160405280602981526020016138e86029913960026126389092919063ffffffff16565b9050919050565b606060098054600181600116156101000203166002900480601f0160208091040260200160405190810160405280929190818152602001828054600181600116156101000203166002900480156112db5780601f106112b0576101008083540402835291602001916112db565b820191906000526020600020905b8154815290600101906020018083116112be57829003601f168201915b5050505050905090565b60008073ffffffffffffffffffffffffffffffffffffffff168273ffffffffffffffffffffffffffffffffffffffff16141561136c576040517f08c379a000000000000000000000000000000000000000000000000000000000815260040180806020018281038252602a8152602001806138be602a913960400191505060405180910390fd5b6113b3600160008473ffffffffffffffffffffffffffffffffffffffff1673ffffffffffffffffffffffffffffffffffffffff168152602001908152602001600020612657565b9050919050565b606060078054600181600116156101000203166002900480601f0160208091040260200160405190810160405280929190818152602001828054600181600116156101000203166002900480156114525780601f1061142757610100808354040283529160200191611452565b820191906000526020600020905b81548152906001019060200180831161143557829003601f168201915b5050505050905090565b6114646121e2565b73ffffffffffffffffffffffffffffffffffffffff168273ffffffffffffffffffffffffffffffffffffffff161415611505576040517f08c379a00000000000000000000000000000000000000000000000000000000081526004018080602001828103825260198152602001807f4552433732313a20617070726f766520746f2063616c6c65720000000000000081525060200191505060405180910390fd5b80600560006115126121e2565b73ffffffffffffffffffffffffffffffffffffffff1673ffffffffffffffffffffffffffffffffffffffff16815260200190815260200160002060008473ffffffffffffffffffffffffffffffffffffffff1673ffffffffffffffffffffffffffffffffffffffff16815260200190815260200160002060006101000a81548160ff0219169083151502179055508173ffffffffffffffffffffffffffffffffffffffff166115bf6121e2565b73ffffffffffffffffffffffffffffffffffffffff167f17307eab39ab6107e8899845ad3d59bd9653f200f220920489ca2b5937696c3183604051808215151515815260200191505060405180910390a35050565b600a5461161f610ea9565b10611692576040517f08c379a00000000000000000000000000000000000000000000000000000000081526004018080602001828103825260138152602001807f4d617820737570706c792072656163686564210000000000000000000000000081525060200191505060405180910390fd5b6000600c546116aa60016116a4610ea9565b01610f36565b029050600d60009054906101000a900473ffffffffffffffffffffffffffffffffffffffff1673ffffffffffffffffffffffffffffffffffffffff166323b872dd3330846040518463ffffffff1660e01b8152600401808473ffffffffffffffffffffffffffffffffffffffff1673ffffffffffffffffffffffffffffffffffffffff1681526020018373ffffffffffffffffffffffffffffffffffffffff1673ffffffffffffffffffffffffffffffffffffffff1681526020018281526020019350505050602060405180830381600087803b15801561178a57600080fd5b505af115801561179e573d6000803e3d6000fd5b505050506040513d60208110156117b457600080fd5b810190808051906020019092919050505050600033604051602001808273ffffffffffffffffffffffffffffffffffffffff1673ffffffffffffffffffffffffffffffffffffffff1660601b81526014019150506040516020818303038152906040528051906020012060001c905061182d338261266c565b3373ffffffffffffffffffffffffffffffffffffffff167ff6f342132c7de5e5a1e99c8efae544c94731f3ff093f5c3c97c6973d9415cdfb8383604051808381526020018281526020019250505060405180910390a25050565b6118986118926121e2565b836122b8565b6118ed576040517f08c379a0000000000000000000000000000000000000000000000000000000008152600401808060200182810382526031815260200180613a046031913960400191505060405180910390fd5b6118f984848484612860565b50505050565b43600e6000848152602001908152602001600020600201541061198a576040517f08c379a00000000000000000000000000000000000000000000000000000000081526004018080602001828103825260188152602001807f546f6b656e20697320616c72656164792072656e74656421000000000000000081525060200191505060405180910390fd5b6000600c546119a2600161199c610ea9565b01610f36565b0290506000607882816119b157fe5b049050600d60009054906101000a900473ffffffffffffffffffffffffffffffffffffffff1673ffffffffffffffffffffffffffffffffffffffff166323b872dd3330846040518463ffffffff1660e01b8152600401808473ffffffffffffffffffffffffffffffffffffffff1673ffffffffffffffffffffffffffffffffffffffff1681526020018373ffffffffffffffffffffffffffffffffffffffff1673ffffffffffffffffffffffffffffffffffffffff1681526020018281526020019350505050602060405180830381600087803b158015611a9157600080fd5b505af1158015611aa5573d6000803e3d6000fd5b505050506040513d6020811015611abb57600080fd5b81019080805190602001909291905050505033600e600086815260200190815260200160002060000160006101000a81548173ffffffffffffffffffffffffffffffffffffffff021916908373ffffffffffffffffffffffffffffffffffffffff16021790555080600e6000868152602001908152602001600020600101819055506202dd424301600e600086815260200190815260200160002060020181905550611b6784846128d2565b3373ffffffffffffffffffffffffffffffffffffffff167f7c9d2ac912c28eb5f87522b3a227c33e0884aa9c28bf987198e395fe62c491388583604051808381526020018281526020019250505060405180910390a250505050565b600b5481565b6060611bd4826121c5565b611c29576040517f08c379a000000000000000000000000000000000000000000000000000000000815260040180806020018281038252602f8152602001806139b4602f913960400191505060405180910390fd5b6060600860008481526020019081526020016000208054600181600116156101000203166002900480601f016020809104026020016040519081016040528092919081815260200182805460018160011615610100020316600290048015611cd25780601f10611ca757610100808354040283529160200191611cd2565b820191906000526020600020905b815481529060010190602001808311611cb557829003601f168201915b50505050509050600060098054600181600116156101000203166002900490501415611d015780915050611ead565b600081511115611dda576009816040516020018083805460018160011615610100020316600290048015611d6c5780601f10611d4a576101008083540402835291820191611d6c565b820191906000526020600020905b815481529060010190602001808311611d58575b505082805190602001908083835b60208310611d9d5780518252602082019150602081019050602083039250611d7a565b6001836020036101000a03801982511681845116808217855250505050505090500192505050604051602081830303815290604052915050611ead565b6009611de58461295c565b6040516020018083805460018160011615610100020316600290048015611e435780601f10611e21576101008083540402835291820191611e43565b820191906000526020600020905b815481529060010190602001808311611e2f575b505082805190602001908083835b60208310611e745780518252602082019150602081019050602083039250611e51565b6001836020036101000a038019825116818451168082178552505050505050905001925050506040516020818303038152906040529150505b919050565b3373ffffffffffffffffffffffffffffffffffffffff16611ed28261120c565b73ffffffffffffffffffffffffffffffffffffffff1614611f5b576040517f08c379a000000000000000000000000000000000000000000000000000000000815260040180806020018281038252600b8152602001807f46616b6520746f6b656e2100000000000000000000000000000000000000000081525060200191505060405180910390fd5b6000600c54611f70611f6b610ea9565b610f36565b029050600d60009054906101000a900473ffffffffffffffffffffffffffffffffffffffff1673ffffffffffffffffffffffffffffffffffffffff1663a9059cbb33836040518363ffffffff1660e01b8152600401808373ffffffffffffffffffffffffffffffffffffffff1673ffffffffffffffffffffffffffffffffffffffff16815260200182815260200192505050602060405180830381600087803b15801561201c57600080fd5b505af1158015612030573d6000803e3d6000fd5b505050506040513d602081101561204657600080fd5b81019080805190602001909291905050505061206182612aa3565b3373ffffffffffffffffffffffffffffffffffffffff167fa8ff15eb642b39da3ab82bb74a87b76cc3e1aef2b82b70bc2a35458386db29aa8284604051808381526020018281526020019250505060405180910390a25050565b6000600560008473ffffffffffffffffffffffffffffffffffffffff1673ffffffffffffffffffffffffffffffffffffffff16815260200190815260200160002060008373ffffffffffffffffffffffffffffffffffffffff1673ffffffffffffffffffffffffffffffffffffffff16815260200190815260200160002060009054906101000a900460ff16905092915050565b600a5481565b600e6020528060005260406000206000915090508060000160009054906101000a900473ffffffffffffffffffffffffffffffffffffffff16908060010154908060020154905083565b600d60009054906101000a900473ffffffffffffffffffffffffffffffffffffffff1681565b60006121db826002612bdd90919063ffffffff16565b9050919050565b600033905090565b816004600083815260200190815260200160002060006101000a81548173ffffffffffffffffffffffffffffffffffffffff021916908373ffffffffffffffffffffffffffffffffffffffff160217905550808273ffffffffffffffffffffffffffffffffffffffff1661225d8361120c565b73ffffffffffffffffffffffffffffffffffffffff167f8c5be1e5ebec7d5bd14f71427d1e84f3dd0314c0f7b2291e5b200ac8c7c3b92560405160405180910390a45050565b60006122b182600001612bf7565b9050919050565b60006122c3826121c5565b612318576040517f08c379a000000000000000000000000000000000000000000000000000000000815260040180806020018281038252602c81526020018061385a602c913960400191505060405180910390fd5b60006123238361120c565b90508073ffffffffffffffffffffffffffffffffffffffff168473ffffffffffffffffffffffffffffffffffffffff16148061239257508373ffffffffffffffffffffffffffffffffffffffff1661237a84610cca565b73ffffffffffffffffffffffffffffffffffffffff16145b806123a357506123a281856120bb565b5b91505092915050565b8273ffffffffffffffffffffffffffffffffffffffff166123cc8261120c565b73ffffffffffffffffffffffffffffffffffffffff1614612438576040517f08c379a000000000000000000000000000000000000000000000000000000000815260040180806020018281038252602981526020018061398b6029913960400191505060405180910390fd5b600073ffffffffffffffffffffffffffffffffffffffff168273ffffffffffffffffffffffffffffffffffffffff1614156124be576040517f08c379a00000000000000000000000000000000000000000000000000000000081526004018080602001828103825260248152602001806138366024913960400191505060405180910390fd5b6124c9838383612c08565b6124d46000826121ea565b61252581600160008673ffffffffffffffffffffffffffffffffffffffff1673ffffffffffffffffffffffffffffffffffffffff168152602001908152602001600020612c0d90919063ffffffff16565b5061257781600160008573ffffffffffffffffffffffffffffffffffffffff1673ffffffffffffffffffffffffffffffffffffffff168152602001908152602001600020612c2790919063ffffffff16565b5061258e81836002612c419092919063ffffffff16565b50808273ffffffffffffffffffffffffffffffffffffffff168473ffffffffffffffffffffffffffffffffffffffff167fddf252ad1be2c89b69c2b068fc378daa952ba7f163c4a11628f55a4df523b3ef60405160405180910390a4505050565b60006125fe8360000183612c76565b60001c905092915050565b60008060008061261c8660000186612cf9565b915091508160001c8160001c8090509350935050509250929050565b600061264b846000018460001b84612d92565b60001c90509392505050565b600061266582600001612e88565b9050919050565b600073ffffffffffffffffffffffffffffffffffffffff168273ffffffffffffffffffffffffffffffffffffffff16141561270f576040517f08c379a00000000000000000000000000000000000000000000000000000000081526004018080602001828103825260208152602001807f4552433732313a206d696e7420746f20746865207a65726f206164647265737381525060200191505060405180910390fd5b612718816121c5565b1561278b576040517f08c379a000000000000000000000000000000000000000000000000000000000815260040180806020018281038252601c8152602001807f4552433732313a20746f6b656e20616c7265616479206d696e7465640000000081525060200191505060405180910390fd5b61279760008383612c08565b6127e881600160008573ffffffffffffffffffffffffffffffffffffffff1673ffffffffffffffffffffffffffffffffffffffff168152602001908152602001600020612c2790919063ffffffff16565b506127ff81836002612c419092919063ffffffff16565b50808273ffffffffffffffffffffffffffffffffffffffff16600073ffffffffffffffffffffffffffffffffffffffff167fddf252ad1be2c89b69c2b068fc378daa952ba7f163c4a11628f55a4df523b3ef60405160405180910390a45050565b61286b8484846123ac565b61287784848484612e99565b6128cc576040517f08c379a00000000000000000000000000000000000000000000000000000000081526004018080602001828103825260328152602001806138046032913960400191505060405180910390fd5b50505050565b6128db826121c5565b612930576040517f08c379a000000000000000000000000000000000000000000000000000000000815260040180806020018281038252602c81526020018061395f602c913960400191505060405180910390fd5b806008600084815260200190815260200160002090805190602001906129579291906136f4565b505050565b606060008214156129a4576040518060400160405280600181526020017f30000000000000000000000000000000000000000000000000000000000000008152509050612a9e565b600082905060005b600082146129ce578080600101915050600a82816129c657fe5b0491506129ac565b60608167ffffffffffffffff811180156129e757600080fd5b506040519080825280601f01601f191660200182016040528015612a1a5781602001600182028036833780820191505090505b50905060006001830390508593505b60008414612a9657600a8481612a3b57fe5b0660300160f81b82828060019003935081518110612a5557fe5b60200101907effffffffffffffffffffffffffffffffffffffffffffffffffffffffffffff1916908160001a905350600a8481612a8e57fe5b049350612a29565b819450505050505b919050565b6000612aae8261120c565b9050612abc81600084612c08565b612ac76000836121ea565b60006008600084815260200190815260200160002080546001816001161561010002031660029004905014612b1657600860008381526020019081526020016000206000612b159190613774565b5b612b6782600160008473ffffffffffffffffffffffffffffffffffffffff1673ffffffffffffffffffffffffffffffffffffffff168152602001908152602001600020612c0d90919063ffffffff16565b50612b7c8260026130de90919063ffffffff16565b5081600073ffffffffffffffffffffffffffffffffffffffff168273ffffffffffffffffffffffffffffffffffffffff167fddf252ad1be2c89b69c2b068fc378daa952ba7f163c4a11628f55a4df523b3ef60405160405180910390a45050565b6000612bef836000018360001b6130f8565b905092915050565b600081600001805490509050919050565b505050565b6000612c1f836000018360001b61311b565b905092915050565b6000612c39836000018360001b613203565b905092915050565b6000612c6d846000018460001b8473ffffffffffffffffffffffffffffffffffffffff1660001b613273565b90509392505050565b600081836000018054905011612cd7576040517f08c379a00000000000000000000000000000000000000000000000000000000081526004018080602001828103825260228152602001806137e26022913960400191505060405180910390fd5b826000018281548110612ce657fe5b9060005260206000200154905092915050565b60008082846000018054905011612d5b576040517f08c379a00000000000000000000000000000000000000000000000000000000081526004018080602001828103825260228152602001806139116022913960400191505060405180910390fd5b6000846000018481548110612d6c57fe5b906000526020600020906002020190508060000154816001015492509250509250929050565b60008084600101600085815260200190815260200160002054905060008114158390612e59576040517f08c379a00000000000000000000000000000000000000000000000000000000081526004018080602001828103825283818151815260200191508051906020019080838360005b83811015612e1e578082015181840152602081019050612e03565b50505050905090810190601f168015612e4b5780820380516001836020036101000a031916815260200191505b509250505060405180910390fd5b50846000016001820381548110612e6c57fe5b9060005260206000209060020201600101549150509392505050565b600081600001805490509050919050565b6000612eba8473ffffffffffffffffffffffffffffffffffffffff1661334f565b612ec757600190506130d6565b606061305d63150b7a0260e01b612edc6121e2565b888787604051602401808573ffffffffffffffffffffffffffffffffffffffff1673ffffffffffffffffffffffffffffffffffffffff1681526020018473ffffffffffffffffffffffffffffffffffffffff1673ffffffffffffffffffffffffffffffffffffffff16815260200183815260200180602001828103825283818151815260200191508051906020019080838360005b83811015612f8c578082015181840152602081019050612f71565b50505050905090810190601f168015612fb95780820380516001836020036101000a031916815260200191505b5095505050505050604051602081830303815290604052907bffffffffffffffffffffffffffffffffffffffffffffffffffffffff19166020820180517bffffffffffffffffffffffffffffffffffffffffffffffffffffffff8381831617835250505050604051806060016040528060328152602001613804603291398773ffffffffffffffffffffffffffffffffffffffff1661339a9092919063ffffffff16565b9050600081806020019051602081101561307657600080fd5b8101908080519060200190929190505050905063150b7a0260e01b7bffffffffffffffffffffffffffffffffffffffffffffffffffffffff1916817bffffffffffffffffffffffffffffffffffffffffffffffffffffffff191614925050505b949350505050565b60006130f0836000018360001b6133b2565b905092915050565b600080836001016000848152602001908152602001600020541415905092915050565b600080836001016000848152602001908152602001600020549050600081146131f7576000600182039050600060018660000180549050039050600086600001828154811061316657fe5b906000526020600020015490508087600001848154811061318357fe5b90600052602060002001819055506001830187600101600083815260200190815260200160002081905550866000018054806131bb57fe5b600190038181906000526020600020016000905590558660010160008781526020019081526020016000206000905560019450505050506131fd565b60009150505b92915050565b600061320f83836134cb565b61326857826000018290806001815401808255809150506001900390600052602060002001600090919091909150558260000180549050836001016000848152602001908152602001600020819055506001905061326d565b600090505b92915050565b600080846001016000858152602001908152602001600020549050600081141561331a57846000016040518060400160405280868152602001858152509080600181540180825580915050600190039060005260206000209060020201600090919091909150600082015181600001556020820151816001015550508460000180549050856001016000868152602001908152602001600020819055506001915050613348565b8285600001600183038154811061332d57fe5b90600052602060002090600202016001018190555060009150505b9392505050565b60008060007fc5d2460186f7233c927e7db2dcc703c0e500b653ca82273b7bfad8045d85a47060001b9050833f915080821415801561339157506000801b8214155b92505050919050565b60606133a984846000856134ee565b90509392505050565b600080836001016000848152602001908152602001600020549050600081146134bf57600060018203905060006001866000018054905003905060008660000182815481106133fd57fe5b906000526020600020906002020190508087600001848154811061341d57fe5b906000526020600020906002020160008201548160000155600182015481600101559050506001830187600101600083600001548152602001908152602001600020819055508660000180548061347057fe5b60019003818190600052602060002090600202016000808201600090556001820160009055505090558660010160008781526020019081526020016000206000905560019450505050506134c5565b60009150505b92915050565b600080836001016000848152602001908152602001600020541415905092915050565b60606134f98561334f565b61356b576040517f08c379a000000000000000000000000000000000000000000000000000000000815260040180806020018281038252601d8152602001807f416464726573733a2063616c6c20746f206e6f6e2d636f6e747261637400000081525060200191505060405180910390fd5b600060608673ffffffffffffffffffffffffffffffffffffffff1685876040518082805190602001908083835b602083106135bb5780518252602082019150602081019050602083039250613598565b6001836020036101000a03801982511681845116808217855250505050505090500191505060006040518083038185875af1925050503d806000811461361d576040519150601f19603f3d011682016040523d82523d6000602084013e613622565b606091505b509150915081156136375780925050506136ec565b60008151111561364a5780518082602001fd5b836040517f08c379a00000000000000000000000000000000000000000000000000000000081526004018080602001828103825283818151815260200191508051906020019080838360005b838110156136b1578082015181840152602081019050613696565b50505050905090810190601f1680156136de5780820380516001836020036101000a031916815260200191505b509250505060405180910390fd5b949350505050565b828054600181600116156101000203166002900490600052602060002090601f016020900481019282601f1061373557805160ff1916838001178555613763565b82800160010185558215613763579182015b82811115613762578251825591602001919060010190613747565b5b50905061377091906137bc565b5090565b50805460018160011615610100020316600290046000825580601f1061379a57506137b9565b601f0160209004906000526020600020908101906137b891906137bc565b5b50565b6137de91905b808211156137da5760008160009055506001016137c2565b5090565b9056fe456e756d657261626c655365743a20696e646578206f7574206f6620626f756e64734552433732313a207472616e7366657220746f206e6f6e20455243373231526563656976657220696d706c656d656e7465724552433732313a207472616e7366657220746f20746865207a65726f20616464726573734552433732313a206f70657261746f7220717565727920666f72206e6f6e6578697374656e7420746f6b656e4552433732313a20617070726f76652063616c6c6572206973206e6f74206f776e6572206e6f7220617070726f76656420666f7220616c6c4552433732313a2062616c616e636520717565727920666f7220746865207a65726f20616464726573734552433732313a206f776e657220717565727920666f72206e6f6e6578697374656e7420746f6b656e456e756d657261626c654d61703a20696e646578206f7574206f6620626f756e64734552433732313a20617070726f76656420717565727920666f72206e6f6e6578697374656e7420746f6b656e4552433732314d657461646174613a2055524920736574206f66206e6f6e6578697374656e7420746f6b656e4552433732313a207472616e73666572206f6620746f6b656e2074686174206973206e6f74206f776e4552433732314d657461646174613a2055524920717565727920666f72206e6f6e6578697374656e7420746f6b656e4552433732313a20617070726f76616c20746f2063757272656e74206f776e65724552433732313a207472616e736665722063616c6c6572206973206e6f74206f776e6572206e6f7220617070726f766564a2646970667358221220a62ab1c5100da43209c2f68057043c496a274a0b109e312fc6f76d86a1c0abde64736f6c63430006080033",
  "immutableReferences": {},
  "source": "//SPDX-License-Identifier: MIT\r\npragma solidity ^0.6.8;\r\n\r\nimport \"@openzeppelin/contracts/token/ERC721/ERC721.sol\";\r\nimport \"@openzeppelin/contracts/token/ERC20/IERC20.sol\";\r\n\r\n/** @title Decentramall SPACE token\r\n * @notice SPACE follows an ERC721 implementation\r\n * @dev Only one address can hold one SPACE token as the tokenID is a hash of the buyer's address\r\n */\r\ncontract Decentramall is ERC721 {\r\n    //Max limit of tokens to be minted\r\n    uint256 public currentLimit;\r\n    //Base price to start\r\n    uint256 public basePrice;\r\n    //TEMPORARY Multiplier to get price in 10 Finney\r\n    uint256 public multiplier = 10000000000000000;\r\n    // DAI contract address\r\n    address public dai;\r\n\r\n\r\n    //Holds current detals about the SPACE\r\n    struct SpaceDetails {\r\n        address rentedTo;\r\n        uint256 rentalEarned;\r\n        uint256 expiryBlock;\r\n    }\r\n\r\n    //Mapping of tokenId to SpaceDetails\r\n    mapping(uint256 => SpaceDetails) public spaceInfo;\r\n\r\n    // event SetLimit(uint256 limit);\r\n    event BuyToken(address indexed buyer, uint256 price, uint256 tokenId);\r\n    event SellToken(address indexed seller, uint256 price, uint256 tokenId);\r\n    event Received(address indexed sender, uint256 value);\r\n\r\n    event Deposit(address indexed from, uint256 tokenId);\r\n    event Rented(address indexed renter, uint256 tokenId, uint256 rentPrice);\r\n    event ClaimRent(address indexed owner, uint256 amount, uint256 toClaim);\r\n\r\n    constructor(\r\n        uint256 _currentLimit,\r\n        uint256 _basePrice,\r\n        address _dai\r\n    ) public ERC721(\"SPACE\", \"SPACE\") {\r\n        currentLimit = _currentLimit;\r\n        basePrice = _basePrice;\r\n        dai = _dai;\r\n    }\r\n\r\n    // /**\r\n    //  * @dev Change the currentLimit variable (Max supply)\r\n    //  * @param limit the current token minting limit\r\n    //  * Only admin(s) can change this variable\r\n    //  */\r\n    // function setLimit(uint256 limit) public onlyAdmin {\r\n    //     currentLimit = limit;\r\n    //     emit SetLimit(limit);\r\n    // }\r\n\r\n    /**\r\n     * @dev Get price of next token\r\n     * @param x the x value in the bonding curve graph\r\n     * Assuming current bonding curve function of y = x^2 + basePrice\r\n     * @return price at the specific position in bonding curve\r\n     */\r\n    function price(uint256 x) public view returns (uint256) {\r\n        return ((x**2) + basePrice);\r\n    }\r\n\r\n    /**\r\n     * @dev Buy a unique token\r\n     * One address can only hold one token as the token ID is based on a hashed version of the buyer's address\r\n     * The price of the token is based on a bonding curve function\r\n     */\r\n    function buy() public {\r\n        require(totalSupply() < currentLimit, \"Max supply reached!\");\r\n        uint256 quotedPrice = price(totalSupply() + 1) * multiplier;\r\n\r\n        IERC20(dai).transferFrom(msg.sender, address(this), quotedPrice);\r\n        uint256 tokenId = uint256(keccak256(abi.encodePacked(msg.sender)));\r\n        _mint(msg.sender, tokenId);\r\n\r\n        emit BuyToken(msg.sender, quotedPrice, tokenId);\r\n    }\r\n\r\n    /**\r\n     * @dev Sell a unique token\r\n     * Sell and burn the token that has been minted\r\n     * @param tokenId the ID of the token being sold\r\n     * - The price of the token is based on a bonding curve function\r\n     * - Will check if token is legitimate\r\n     */\r\n    function sell(uint256 tokenId) public {\r\n        require(\r\n            ownerOf(tokenId) == msg.sender,\r\n            \"Fake token!\"\r\n        );\r\n        uint256 quotedPrice = price(totalSupply()) * multiplier;\r\n        IERC20(dai).transfer(msg.sender, quotedPrice);\r\n        _burn(tokenId);\r\n        emit SellToken(msg.sender, quotedPrice, tokenId);\r\n    }\r\n\r\n    /**\r\n     * @dev Allows users to rent a SPACE token of choice\r\n     * @param tokenId ID of the token to check\r\n     * @notice rent per year cost 1/10 of the price to buy new & lasts for 1 month (187714 blocks)\r\n     **/\r\n    function rent(uint256 tokenId, string memory _tokenURI) public {\r\n        require(\r\n            spaceInfo[tokenId].expiryBlock < block.number,\r\n            \"Token is already rented!\"\r\n        );\r\n        uint256 priceFinney = price(totalSupply() + 1) * multiplier;\r\n        uint256 rentPrice = priceFinney / 120; //In wei\r\n        IERC20(dai).transferFrom(msg.sender, address(this), rentPrice);\r\n        spaceInfo[tokenId].rentedTo = msg.sender;\r\n        spaceInfo[tokenId].rentalEarned = rentPrice;\r\n        spaceInfo[tokenId].expiryBlock = block.number + 187714;\r\n        _setTokenURI(tokenId, _tokenURI);\r\n        emit Rented(msg.sender, tokenId, rentPrice);\r\n    }\r\n\r\n    // TODO: add method to extend rent\r\n\r\n    // TODO: add method to cancel rent, forcing to wait two days\r\n\r\n    /**\r\n     * @dev Claim the rent earned\r\n     * @param tokenId id of the SPACE token\r\n     * @notice Owner can claim rent right on Day 1 of renting\r\n     **/\r\n    function claim(uint256 tokenId) public {\r\n        require(ownerOf(tokenId) == msg.sender, \"Not owner!\");\r\n        uint256 toClaim = spaceInfo[tokenId].rentalEarned;\r\n        IERC20(dai).transfer(msg.sender, toClaim);\r\n        spaceInfo[tokenId].rentalEarned -= toClaim;\r\n        emit ClaimRent(msg.sender, tokenId, toClaim);\r\n    }\r\n}\r\n",
  "sourcePath": "C:/Eason/HackFS/contracts/contracts/Decentramall.sol",
  "compiler": {
    "name": "solc",
    "version": "0.6.8+commit.0bbfe453.Emscripten.clang"
  },
  "schemaVersion": "3.2.2",
  "updatedAt": "2020-09-17T07:53:44.664Z",
  "devdoc": {
    "details": "Only one address can hold one SPACE token as the tokenID is a hash of the buyer's address",
    "methods": {
      "approve(address,uint256)": {
        "details": "See {IERC721-approve}."
      },
      "balanceOf(address)": {
        "details": "See {IERC721-balanceOf}."
      },
      "baseURI()": {
        "details": "Returns the base URI set via {_setBaseURI}. This will be automatically added as a prefix in {tokenURI} to each token's URI, or to the token ID if no specific URI is set for that token ID."
      },
      "buy()": {
        "details": "Buy a unique token One address can only hold one token as the token ID is based on a hashed version of the buyer's address The price of the token is based on a bonding curve function"
      },
      "claim(uint256)": {
        "details": "Claim the rent earned",
        "params": {
          "tokenId": "id of the SPACE token"
        }
      },
      "getApproved(uint256)": {
        "details": "See {IERC721-getApproved}."
      },
      "isApprovedForAll(address,address)": {
        "details": "See {IERC721-isApprovedForAll}."
      },
      "name()": {
        "details": "See {IERC721Metadata-name}."
      },
      "ownerOf(uint256)": {
        "details": "See {IERC721-ownerOf}."
      },
      "price(uint256)": {
        "details": "Get price of next token",
        "params": {
          "x": "the x value in the bonding curve graph Assuming current bonding curve function of y = x^2 + basePrice"
        },
        "returns": {
          "_0": "price at the specific position in bonding curve"
        }
      },
      "rent(uint256,string)": {
        "details": "Allows users to rent a SPACE token of choice",
        "params": {
          "tokenId": "ID of the token to check"
        }
      },
      "safeTransferFrom(address,address,uint256)": {
        "details": "See {IERC721-safeTransferFrom}."
      },
      "safeTransferFrom(address,address,uint256,bytes)": {
        "details": "See {IERC721-safeTransferFrom}."
      },
      "sell(uint256)": {
        "details": "Sell a unique token Sell and burn the token that has been minted",
        "params": {
          "tokenId": "the ID of the token being sold - The price of the token is based on a bonding curve function - Will check if token is legitimate"
        }
      },
      "setApprovalForAll(address,bool)": {
        "details": "See {IERC721-setApprovalForAll}."
      },
      "supportsInterface(bytes4)": {
        "details": "See {IERC165-supportsInterface}.     * Time complexity O(1), guaranteed to always use less than 30 000 gas."
      },
      "symbol()": {
        "details": "See {IERC721Metadata-symbol}."
      },
      "tokenByIndex(uint256)": {
        "details": "See {IERC721Enumerable-tokenByIndex}."
      },
      "tokenOfOwnerByIndex(address,uint256)": {
        "details": "See {IERC721Enumerable-tokenOfOwnerByIndex}."
      },
      "tokenURI(uint256)": {
        "details": "See {IERC721Metadata-tokenURI}."
      },
      "totalSupply()": {
        "details": "See {IERC721Enumerable-totalSupply}."
      },
      "transferFrom(address,address,uint256)": {
        "details": "See {IERC721-transferFrom}."
      }
    },
    "title": "Decentramall SPACE token"
  },
  "userdoc": {
    "methods": {
      "claim(uint256)": {
        "notice": "Owner can claim rent right on Day 1 of renting*"
      },
      "rent(uint256,string)": {
        "notice": "rent per year cost 1/10 of the price to buy new & lasts for 1 month (187714 blocks)*"
      }
    },
    "notice": "SPACE follows an ERC721 implementation"
  }
}